:030000000208955E
:0C089500787FE4F6D8FD75810702083872
:100800000D0A456E746572207468652063686172B4
:1008100061637465722066726F6D204B6579626FDB
:100820006172640D0A00596F7520686176652065F4
:080830006E746572656420001E
:0F088600759850758780758920758DEFD28E22F9
:100870001208576010F5993099FDC299740129F951
:06088000E43AFA80EB22CD
:0708A1003098FDAF99C298E9
:0108A800222D
:0808A9008F993099FDC29922DC
:100838001208867BFF7A0879001208701208A1AEA8
:0F084800077A087926120870AF061208A980E413
:10085700BB010689828A83E0225002E722BBFE029F
:09086700E32289828A83E49322D2
:00000001FF
